{
  "_format": "hh-sol-artifact-1",
  "contractName": "Login",
  "sourceName": "contracts/Login.sol",
  "abi": [
    {
      "inputs": [],
      "stateMutability": "nonpayable",
      "type": "constructor"
    },
    {
      "inputs": [],
      "name": "getAdmin",
      "outputs": [
        {
          "internalType": "string",
          "name": "",
          "type": "string"
        }
      ],
      "stateMutability": "view",
      "type": "function"
    },
    {
      "inputs": [
        {
          "internalType": "string",
          "name": "_candidate",
          "type": "string"
        }
      ],
      "name": "getResult",
      "outputs": [
        {
          "internalType": "uint256",
          "name": "",
          "type": "uint256"
        }
      ],
      "stateMutability": "view",
      "type": "function"
    },
    {
      "inputs": [
        {
          "internalType": "string",
          "name": "_voter",
          "type": "string"
        },
        {
          "internalType": "string",
          "name": "_candidate",
          "type": "string"
        }
      ],
      "name": "vote",
      "outputs": [],
      "stateMutability": "nonpayable",
      "type": "function"
    },
    {
      "inputs": [
        {
          "internalType": "string",
          "name": "_adhar",
          "type": "string"
        }
      ],
      "name": "vote_status",
      "outputs": [
        {
          "internalType": "bool",
          "name": "",
          "type": "bool"
        }
      ],
      "stateMutability": "view",
      "type": "function"
    }
  ],
  "bytecode": "0x608060405234801561001057600080fd5b506040518060400160405280600e81526020017f30303030203030303020303030300000000000000000000000000000000000008152506000908051906020019061005c9291906100ae565b506040518060400160405280600a81526020017f30322f31312f3139393900000000000000000000000000000000000000000000815250600190805190602001906100a89291906100ae565b506101b2565b8280546100ba90610151565b90600052602060002090601f0160209004810192826100dc5760008555610123565b82601f106100f557805160ff1916838001178555610123565b82800160010185558215610123579182015b82811115610122578251825591602001919060010190610107565b5b5090506101309190610134565b5090565b5b8082111561014d576000816000905550600101610135565b5090565b6000600282049050600182168061016957607f821691505b6020821081141561017d5761017c610183565b5b50919050565b7f4e487b7100000000000000000000000000000000000000000000000000000000600052602260045260246000fd5b6106b9806101c16000396000f3fe608060405234801561001057600080fd5b506004361061004c5760003560e01c806319b3e81f14610051578063498cc70d146100815780636e9960c3146100b1578063e8d5940d146100cf575b600080fd5b61006b600480360381019061006691906102b3565b6100eb565b60405161007891906103ff565b60405180910390f35b61009b600480360381019061009691906102b3565b610120565b6040516100a8919061043c565b60405180910390f35b6100b9610148565b6040516100c6919061041a565b60405180910390f35b6100e960048036038101906100e491906102f4565b6101da565b005b60006002826040516100fd91906103e8565b908152602001604051809103902060009054906101000a900460ff169050919050565b600060038260405161013291906103e8565b9081526020016040518091039020549050919050565b60606000805461015790610582565b80601f016020809104026020016040519081016040528092919081815260200182805461018390610582565b80156101d05780601f106101a5576101008083540402835291602001916101d0565b820191906000526020600020905b8154815290600101906020018083116101b357829003601f168201915b5050505050905090565b60016002836040516101ec91906103e8565b908152602001604051809103902060006101000a81548160ff021916908315150217905550600160038260405161022391906103e8565b9081526020016040518091039020600082825461024091906104d4565b925050819055505050565b600061025e6102598461047c565b610457565b90508281526020810184848401111561027657600080fd5b610281848285610540565b509392505050565b600082601f83011261029a57600080fd5b81356102aa84826020860161024b565b91505092915050565b6000602082840312156102c557600080fd5b600082013567ffffffffffffffff8111156102df57600080fd5b6102eb84828501610289565b91505092915050565b6000806040838503121561030757600080fd5b600083013567ffffffffffffffff81111561032157600080fd5b61032d85828601610289565b925050602083013567ffffffffffffffff81111561034a57600080fd5b61035685828601610289565b9150509250929050565b6103698161052a565b82525050565b600061037a826104ad565b61038481856104b8565b935061039481856020860161054f565b61039d81610672565b840191505092915050565b60006103b3826104ad565b6103bd81856104c9565b93506103cd81856020860161054f565b80840191505092915050565b6103e281610536565b82525050565b60006103f482846103a8565b915081905092915050565b60006020820190506104146000830184610360565b92915050565b60006020820190508181036000830152610434818461036f565b905092915050565b600060208201905061045160008301846103d9565b92915050565b6000610461610472565b905061046d82826105b4565b919050565b6000604051905090565b600067ffffffffffffffff82111561049757610496610643565b5b6104a082610672565b9050602081019050919050565b600081519050919050565b600082825260208201905092915050565b600081905092915050565b60006104df82610536565b91506104ea83610536565b9250827fffffffffffffffffffffffffffffffffffffffffffffffffffffffffffffffff0382111561051f5761051e6105e5565b5b828201905092915050565b60008115159050919050565b6000819050919050565b82818337600083830152505050565b60005b8381101561056d578082015181840152602081019050610552565b8381111561057c576000848401525b50505050565b6000600282049050600182168061059a57607f821691505b602082108114156105ae576105ad610614565b5b50919050565b6105bd82610672565b810181811067ffffffffffffffff821117156105dc576105db610643565b5b80604052505050565b7f4e487b7100000000000000000000000000000000000000000000000000000000600052601160045260246000fd5b7f4e487b7100000000000000000000000000000000000000000000000000000000600052602260045260246000fd5b7f4e487b7100000000000000000000000000000000000000000000000000000000600052604160045260246000fd5b6000601f19601f830116905091905056fea2646970667358221220e5873c58688ba5bc1f20d136e8e8d60d60fa8d03ccba315f83ba6154ffbc742364736f6c63430008040033",
  "linkReferences": {},
  "deployedLinkReferences": {}
}